{
  "contractName": "Voting",
  "abi": [
    {
      "constant": true,
      "inputs": [],
      "name": "candidatesCount",
      "outputs": [
        {
          "name": "",
          "type": "uint256"
        }
      ],
      "payable": false,
      "stateMutability": "view",
      "type": "function"
    },
    {
      "constant": true,
      "inputs": [
        {
          "name": "",
          "type": "uint256"
        }
      ],
      "name": "candidates",
      "outputs": [
        {
          "name": "id",
          "type": "uint256"
        },
        {
          "name": "name",
          "type": "string"
        },
        {
          "name": "voteCount",
          "type": "uint256"
        }
      ],
      "payable": false,
      "stateMutability": "view",
      "type": "function"
    },
    {
      "constant": true,
      "inputs": [],
      "name": "votingEnd",
      "outputs": [
        {
          "name": "",
          "type": "uint256"
        }
      ],
      "payable": false,
      "stateMutability": "view",
      "type": "function"
    },
    {
      "constant": true,
      "inputs": [
        {
          "name": "",
          "type": "address"
        }
      ],
      "name": "voters",
      "outputs": [
        {
          "name": "",
          "type": "uint256"
        }
      ],
      "payable": false,
      "stateMutability": "view",
      "type": "function"
    },
    {
      "inputs": [
        {
          "name": "candidateNames",
          "type": "bytes32[]"
        },
        {
          "name": "voteEndsWithin",
          "type": "uint256"
        }
      ],
      "payable": false,
      "stateMutability": "nonpayable",
      "type": "constructor"
    },
    {
      "anonymous": false,
      "inputs": [
        {
          "indexed": false,
          "name": "_candidateId",
          "type": "uint256"
        }
      ],
      "name": "votedEvent",
      "type": "event"
    },
    {
      "anonymous": false,
      "inputs": [
        {
          "indexed": true,
          "name": "_candidateId",
          "type": "uint256"
        }
      ],
      "name": "voteRemovedEvent",
      "type": "event"
    },
    {
      "anonymous": false,
      "inputs": [
        {
          "indexed": false,
          "name": "error",
          "type": "string"
        }
      ],
      "name": "revert",
      "type": "event"
    },
    {
      "constant": false,
      "inputs": [
        {
          "name": "_candidateId",
          "type": "uint256"
        }
      ],
      "name": "voteForCandidate",
      "outputs": [],
      "payable": false,
      "stateMutability": "nonpayable",
      "type": "function"
    },
    {
      "constant": false,
      "inputs": [
        {
          "name": "_candidateId",
          "type": "uint256"
        }
      ],
      "name": "removeVoteForCandidate",
      "outputs": [],
      "payable": false,
      "stateMutability": "nonpayable",
      "type": "function"
    },
    {
      "constant": false,
      "inputs": [
        {
          "name": "_candidateId",
          "type": "uint256"
        }
      ],
      "name": "changeVoteForCandidate",
      "outputs": [],
      "payable": false,
      "stateMutability": "nonpayable",
      "type": "function"
    },
    {
      "constant": true,
      "inputs": [],
      "name": "viewVote",
      "outputs": [
        {
          "name": "",
          "type": "uint256"
        }
      ],
      "payable": false,
      "stateMutability": "view",
      "type": "function"
    }
  ],
  "bytecode": "0x608060405234801561001057600080fd5b50604051610bfe380380610bfe8339810180604052810190808051820192919060200180519060200190929190505050600080606083420160008190555084519250600091505b828210156100b55761008e858381518110151561007057fe5b906020019060200201516100bf640100000000026401000000009004565b90506100a88161018b640100000000026401000000009004565b8180600101925050610057565b50505050506102ad565b606080600060206040519080825280601f01601f1916602001820160405280156100f85781602001602082028038833980820191505090505b5091505b602081101561018157838160208110151561011357fe5b1a7f010000000000000000000000000000000000000000000000000000000000000002828281518110151561014457fe5b9060200101907effffffffffffffffffffffffffffffffffffffffffffffffffffffffffffff1916908160001a90535080806001019150506100fc565b8192505050919050565b600160008154809291906001019190505550606060405190810160405280600154815260200182815260200160008152506003600060015481526020019081526020016000206000820151816000015560208201518160010190805190602001906101f7929190610208565b506040820151816002015590505050565b828054600181600116156101000203166002900490600052602060002090601f016020900481019282601f1061024957805160ff1916838001178555610277565b82800160010185558215610277579182015b8281111561027657825182559160200191906001019061025b565b5b5090506102849190610288565b5090565b6102aa91905b808211156102a657600081600090555060010161028e565b5090565b90565b610942806102bc6000396000f30060806040526004361061008e576000357c0100000000000000000000000000000000000000000000000000000000900463ffffffff16806323d0e0e5146100935780632d35a8a2146100c05780633477ee2e146100eb57806336c8c5ee1461019f5780633a615fe4146101cc57806385a38635146101f9578063a3ec138d14610224578063cf26b5a41461027b575b600080fd5b34801561009f57600080fd5b506100be600480360381019080803590602001909291905050506102a6565b005b3480156100cc57600080fd5b506100d5610495565b6040518082815260200191505060405180910390f35b3480156100f757600080fd5b506101166004803603810190808035906020019092919050505061049b565b6040518084815260200180602001838152602001828103825284818151815260200191508051906020019080838360005b83811015610162578082015181840152602081019050610147565b50505050905090810190601f16801561018f5780820380516001836020036101000a031916815260200191505b5094505050505060405180910390f35b3480156101ab57600080fd5b506101ca6004803603810190808035906020019092919050505061055d565b005b3480156101d857600080fd5b506101f7600480360381019080803590602001909291905050506106e5565b005b34801561020557600080fd5b5061020e6108b1565b6040518082815260200191505060405180910390f35b34801561023057600080fd5b50610265600480360381019080803573ffffffffffffffffffffffffffffffffffffffff1690602001909291905050506108b7565b6040518082815260200191505060405180910390f35b34801561028757600080fd5b506102906108cf565b6040518082815260200191505060405180910390f35b426000541115156102b657600080fd5b6000600260003373ffffffffffffffffffffffffffffffffffffffff1673ffffffffffffffffffffffffffffffffffffffff168152602001908152602001600020541415151561036e576040517f08c379a00000000000000000000000000000000000000000000000000000000081526004018080602001828103825260168152602001807f596f7520686176656e277420766f74656420796574210000000000000000000081525060200191505060405180910390fd5b60008111801561038057506001548111155b151561038b57600080fd5b60036000600260003373ffffffffffffffffffffffffffffffffffffffff1673ffffffffffffffffffffffffffffffffffffffff1681526020019081526020016000205481526020019081526020016000206002016000815480929190600190039190505550600360008281526020019081526020016000206002016000815480929190600101919050555080600260003373ffffffffffffffffffffffffffffffffffffffff1673ffffffffffffffffffffffffffffffffffffffff168152602001908152602001600020819055507ffff3c900d938d21d0990d786e819f29b8d05c1ef587b462b939609625b684b16816040518082815260200191505060405180910390a150565b60015481565b6003602052806000526040600020600091509050806000015490806001018054600181600116156101000203166002900480601f01602080910402602001604051908101604052809291908181526020018280546001816001161561010002031660029004801561054d5780601f106105225761010080835404028352916020019161054d565b820191906000526020600020905b81548152906001019060200180831161053057829003601f168201915b5050505050908060020154905083565b4260005411151561056d57600080fd5b6000600260003373ffffffffffffffffffffffffffffffffffffffff1673ffffffffffffffffffffffffffffffffffffffff16815260200190815260200160002054141515610624576040517f08c379a00000000000000000000000000000000000000000000000000000000081526004018080602001828103825260178152602001807f596f75206861766520616c726561647920766f7465642100000000000000000081525060200191505060405180910390fd5b60008111801561063657506001548111155b151561064157600080fd5b80600260003373ffffffffffffffffffffffffffffffffffffffff1673ffffffffffffffffffffffffffffffffffffffff1681526020019081526020016000208190555060036000828152602001908152602001600020600201600081548092919060010191905055507ffff3c900d938d21d0990d786e819f29b8d05c1ef587b462b939609625b684b16816040518082815260200191505060405180910390a150565b426000541115156106f557600080fd5b6000600260003373ffffffffffffffffffffffffffffffffffffffff1673ffffffffffffffffffffffffffffffffffffffff16815260200190815260200160002054141515156107ad576040517f08c379a00000000000000000000000000000000000000000000000000000000081526004018080602001828103825260168152602001807f596f7520686176656e277420766f74656420796574210000000000000000000081525060200191505060405180910390fd5b6000811180156107bf57506001548111155b15156107ca57600080fd5b80600260003373ffffffffffffffffffffffffffffffffffffffff1673ffffffffffffffffffffffffffffffffffffffff1681526020019081526020016000205414151561081757600080fd5b600360008281526020019081526020016000206002016000815480929190600190039190505550600260003373ffffffffffffffffffffffffffffffffffffffff1673ffffffffffffffffffffffffffffffffffffffff16815260200190815260200160002060009055807facd7626a743aeaf95bd8c697d89563206e81f88aa6895f8aa9c28cb6aa21809260405160405180910390a250565b60005481565b60026020528060005260406000206000915090505481565b6000600260003373ffffffffffffffffffffffffffffffffffffffff1673ffffffffffffffffffffffffffffffffffffffff168152602001908152602001600020549050905600a165627a7a72305820092bcc43701b492104653ced1ced49ad2fae7feb9cd273ad9acb9c2d743e456f0029",
  "source": "/* sources: dappuniversity https://github.com/dappuniversity/election\r\n *          https://ethereum.stackexchange.com/questions/2519/how-to-convert-a-bytes32-to-string\r\n *          https://medium.com/@mvmurthy/full-stack-hello-world-voting-ethereum-dapp-tutorial-part-1-40d2d0d807c2\r\n *          https://medium.com/@mvmurthy/full-stack-hello-world-voting-ethereum-dapp-tutorial-part-2-30b3d335aa1f\r\n*/\r\npragma solidity ^0.4.24; //We have to specify what version of compiler this code will use\r\n\r\ncontract Voting {\r\n\r\n      //Store when the voting ends\r\n      uint public votingEnd;\r\n\r\n      //Store the amount of candidates\r\n      uint public candidatesCount;\r\n\r\n      //Model for candidate\r\n      struct Candidate {\r\n        uint id;        //the id from the candidate\r\n        string name;     //the namefrom the candidate\r\n        uint voteCount;   //the amount of votes for each candidate\r\n      }\r\n\r\n      //Store which account voted on who\r\n      mapping(address => uint) public voters;\r\n\r\n      //Store Candidates\r\n      mapping(uint => Candidate) public candidates;\r\n\r\n      // voted event\r\n      event votedEvent (uint _candidateId);\r\n\r\n      // vote erased\r\n      event voteRemovedEvent (uint indexed _candidateId);\r\n\r\n      // error event\r\n      event revert (string error);\r\n\r\n      // constructor for the voting contract\r\n      function Voting (bytes32[] candidateNames, uint voteEndsWithin) public {\r\n        votingEnd = now + voteEndsWithin;\r\n        uint candidateNamesLength = candidateNames.length;\r\n           for(uint index = 0; index < candidateNamesLength; index++){    \r\n            string memory candidateNameString =  convertBytes32ToString(candidateNames[index]); //since there's no native support we need to convert this to strings\r\n            addCandidate(candidateNameString);\r\n          }\r\n      }\r\n\r\n    // convert the bytes32 to strings\r\n    function convertBytes32ToString(bytes32 bytes32String) private returns(string){\r\n      bytes memory bytesArray = new bytes(32);\r\n      for (uint256 i; i < 32; i++) {\r\n        bytesArray[i] = bytes32String[i];\r\n      }\r\n      return string(bytesArray);\r\n    }\r\n    \r\n    // add a candidate\r\n    function addCandidate (string _name) private{\r\n        candidatesCount ++;\r\n        candidates[candidatesCount] = Candidate(candidatesCount, _name, 0);\r\n    }\r\n\r\n    // vote for the candidate\r\n    function voteForCandidate (uint _candidateId) public {\r\n        // require that the voting hasn't ended yet\r\n        require(votingEnd > now);\r\n\r\n        // require that they haven't voted before\r\n        require(voters[msg.sender] == 0, \"You have already voted!\");\r\n\r\n        // require a valid candidate\r\n        require(_candidateId > 0 && _candidateId <= candidatesCount);\r\n        \r\n        //record on who they voted\r\n        voters[msg.sender] = _candidateId;\r\n\r\n        // update candidate vote Count\r\n        candidates[_candidateId].voteCount++;\r\n\r\n        // trigger vote event\r\n        votedEvent(_candidateId);\r\n    } \r\n\r\n    // remove the vote\r\n    function removeVoteForCandidate(uint _candidateId) public {\r\n      // require that the voting hasn't ended yet\r\n      require(votingEnd > now);\r\n\r\n      //require that they have already voted\r\n      require(voters[msg.sender] != 0, \"You haven't voted yet!\");\r\n\r\n      // require a valid candidate\r\n      require(_candidateId > 0 && _candidateId <= candidatesCount);\r\n\r\n      // require that the candidate has voted for that candidate\r\n      require(voters[msg.sender] == _candidateId);\r\n\r\n      // reduce the vote count from the candidate\r\n      candidates[_candidateId].voteCount--;\r\n\r\n      // delete his old vote\r\n      delete voters[msg.sender];\r\n\r\n      //trigger the vote removed event\r\n      voteRemovedEvent(_candidateId);\r\n    }\r\n\r\n    // change vote\r\n    function changeVoteForCandidate(uint _candidateId) {\r\n      // require that the voting hasn't ended yet\r\n      require(votingEnd > now);\r\n\r\n      //require that they have already voted\r\n      require(voters[msg.sender] != 0, \"You haven't voted yet!\");\r\n\r\n       // require a valid candidate to vote for\r\n      require(_candidateId > 0 && _candidateId <= candidatesCount);\r\n\r\n      // reduce the votes from the previous candidate on which the user voted on\r\n      candidates[voters[msg.sender]].voteCount--;\r\n\r\n      // increase the votes from the new candidate on which the user wants to vote\r\n      candidates[_candidateId].voteCount++;\r\n\r\n      // record that voter has voted\r\n        voters[msg.sender] = _candidateId;\r\n\r\n      // trigger the vote event\r\n        votedEvent(_candidateId);\r\n    }\r\n\r\n    function viewVote() public view returns (uint){\r\n        return voters[msg.sender];\r\n    }\r\n}\r\n\r\n\r\n\r\n",
  "sourcePath": "D:\\data\\solidity-test-app-settlemint\\contracts\\Voting.sol",
  "compiler": {
    "name": "solc",
    "version": "0.4.24+commit.e67f0147.Emscripten.clang"
  },
  "schemaVersion": "2.0.1",
  "updatedAt": "2018-11-11T16:22:22.520Z"
}